:020000040800F2
:10000000A809002011020008A54500080F350008C6
:10001000A145000819090008FF540008000000006D
:10002000000000000000000000000000E948000897
:100030005B09000800000000A9450008EB48000823
:100040002B0200082B0200082B0200082B020008DC
:100050002B0200082B0200082B0200082B020008CC
:100060002B0200082B0200082B0200082B020008BC
:100070002B0200082B0200082B0200082B020008AC
:100080002B0200082B0200082B0200082B0200089C
:100090002B0200082B0200082B0200082B0200088C
:1000A0002B020008E94900082B0200082B02000877
:1000B0002B0200082B0200082B0200082B0200086C
:1000C0002B0200082B0200082B0200082B0200085C
:1000D0002B0200082B0200082B0200082B0200084C
:1000E0005D0900082B0200082B0200082B02000803
:1000F0002B0200082B0200082B0200082B0200082C
:100100002B0200082B0200082B0200082B0200081B
:100110002B0200082B0200082B0200082B0200080B
:100120002B0200082B0200082B0200082B020008FB
:100130002B0200082B0200082B0200082B020008EB
:100140002B0200082B0200082B0200082B020008DB
:100150002B0200082B0200082B0200082B020008CB
:100160002B0200082B0200082B0200082B020008BB
:100170002B0200082B0200082B02000800000000E0
:100180002B0200082B0200082B0200082B0200089B
:100190002B0200082B0200082B0200082B0200088B
:1001A0002B0200082B0200082B0200082B0200087B
:1001B0002B0200082B0200082B0200082B0200086B
:1001C0002B0200082B020008000000002B02000890
:1001D0002B0200082B0200082B0200082B0200084B
:1001E0002B0200082B0200082B0200082B0200083B
:1001F0002B0200082B020008DFF810D000F052FAA2
:100200000048004791610008AFF30080A809002072
:100210000648804706480047FEE7FEE7FEE7FEE7A0
:10022000FEE7FEE7FEE7FEE7FEE7FEE7D54900084A
:10023000F90100082DE9F05F0546002092469B4633
:1002400088460646814640241BE0284641464746EC
:10025000224600F05EF853465A46C01A914110D328
:1002600011461846224600F045F82D1A67EB0108A2
:100270004F4622460120002100F03CF817EB000910
:100280004E41201EA4F10104DFDC484631462A46D7
:100290004346BDE8F09FD2B201E000F8012B491EB1
:1002A000FBD270470022F6E710B513460A46044613
:1002B0001946FFF7F0FF204610BD421C10F8011B45
:1002C0000029FBD1801A704730B50B46014600204B
:1002D0002022012409E021FA02F59D4205D303FA08
:1002E00002F5491B04FA02F52844151EA2F1010289
:1002F000F1DC30BD202A04DB203A00FA02F10020B4
:1003000070479140C2F1200320FA03F31943904053
:100310007047202A04DB203A21FA02F000217047BE
:1003200021FA02F3D040C2F120029140084319465D
:1003300070472DE9FE4F804681EA0300C00F0C464E
:10034000009021F0004123F00045B8EB0200A941E4
:1003500005D24046214690461C460B46024623F0F5
:100360000040104347D0270DC7F30A00C3F30A51DA
:100370000290401A019040286BDAC3F3130040F456
:10038000801B0098924620B10023D2EB030A63EB56
:100390000B0B01985946C0F140025046FFF7AAFFE7
:1003A00006460D4650465946019A00F08DF910EB6D
:1003B00008006141002487EA115284EAE7731A4376
:1003C00040D0009A62B3019A012A4FEA075215DC25
:1003D000001B61EB02014FF0004202EA0752CDE937
:1003E0000042001C41F5801132462B4600F08DF989
:1003F00003B0BDE8F08F40462146F9E7001B61EBF2
:100400000201001C41F5801300185B412018A2F581
:10041000001747EB030140EAD570B6196D4111E0B2
:100420006D084FEA360645EAC0754FEA0752001BD1
:1004300061EB0201001C41F5801149084FEA3000D0
:100440000019514132462B4603B0BDE8F04F00F091
:100450004DB90098012240000023D0EB020263EB6B
:10046000E073009821464FEAE074B8EB000061EBBE
:100470000401E9E783F000435BE781F0004158E7BE
:100480002DE9FE4F81EA030404F0004421F000410D
:1004900000944FF0000B23F0004350EA01045ED0BB
:1004A00052EA03045BD0C3F30A54C1F30A552C4447
:1004B000A4F2F3340194A0FB0254C1F3130141F4FC
:1004C0008011C3F3130343F4801301FB024400FBC8
:1004D000034E840A970A44EA815447EA8357A4FBEF
:1004E000076802958D0A05FB07854FEA932C04FBEC
:1004F0000C542705029D4FEA065847EA1637B5EB1C
:1005000008056EEB070C870E920E47EA811742EA48
:100510008312A7FB0201B6EB0B0164EB00042B0D69
:1005200043EA0C335E1844EB1C50DA465146E7FBB5
:100530000201C5F313044FEA0B3343EA14534FEAA5
:100540000432019C43EA0603A4F10C040294009CCB
:10055000CDE900B400F0D9F803B0BDE8F08F002079
:100560000146F9E72DE9F04D81EA030404F0004B60
:1005700021F0004514464FF0000A23F0004150EAF4
:10058000050220D054EA01021DD0C5F30A570246E5
:10059000C5F31303C1F31300C1F30A5640F48015E9
:1005A00043F48013A7EB0608101BD64608F2FD386B
:1005B00073EB050002D308F1010801E092185B41DA
:1005C000B8F1000F03DA00200146BDE8F08D0020ED
:1005D0004FF48011064684460EE0171B73EB0507A7
:1005E00005D3121B63EB050306434CEA010C4908D3
:1005F0004FEA300092185B4150EA0107EDD152EA10
:10060000030012D082EA040083EA0501084305D002
:10061000101BAB4106D20122002306E000224FF05E
:10062000004302E06FF0010253101AEB06004CEB9E
:10063000085110EB0A0041EB0B01BDE8F04D00F052
:1006400055B8C1F30A52C1F3130140F2FF3341F42C
:1006500080119A4202DA00200146704740F233438B
:100660009A42A2F2334202DC5242FFF752BEFFF737
:1006700041BE000030B5041E71F1000404DB4FF0F0
:100680000044404264EB0101141E73F1000405DBD9
:100690001C464FF00043524263EB0403994208BFEB
:1006A000904230BD064C074D06E0E06840F0010383
:1006B00094E8070098471034AC42F6D3FFF7A0FD4A
:1006C000446A0008646A0008202A06DBCB17203A37
:1006D00041FA02F043EAE07306E041FA02F3D04047
:1006E000C2F12002914008431946704710B5141E0C
:1006F00073F1000408DA401C41F1000192185B41DB
:100700001A4301D120F0010010BD2DE9F04D9246B1
:100710009B4611B1B1FA81F202E0B0FA80F22032C8
:100720009046FFF7E7FD04460F4640EA0A0041EA1B
:100730000B0153465A46084313D0114653EA0100B1
:1007400019D0C8F140025046FFF7E3FD05460E46BA
:10075000504659464246FFF7CDFD084305D00120DB
:1007600004E020463946BDE8F08D0020054346EA06
:10077000E0762C4337430A986305E40AA0EB0800AF
:100780000022FD0A44EA47540A3002D500200146FF
:10079000E9E7010510196941DDE9084500196941DA
:1007A000BDE8F04DA2E700005849096821F4403146
:1007B000574AC2F804131146D1F804134268114392
:1007C000524A11600168496821F4807102685160E1
:1007D00001684A68016942EA0121026851600168C2
:1007E000496821F040710268516001684968826877
:1007F0001143026851600168896821F40061026850
:10080000916001688968C268114302689160414A39
:10081000816A914218D00168896821F0706102688C
:10082000916001688968826A114302689160016879
:10083000896821F040510268916001688968C26A44
:100840001143026891600BE00168896821F07061D2
:10085000026891600168896821F0405102689160E6
:100860000168896821F002010268916001688A6864
:10087000816942EA4101026891602021095CA1B1CD
:100880000168496841F40061026851600168496883
:1008900021F460410268516001684A68416A491E5A
:1008A00042EA41310268516005E00168496821F47B
:1008B0000061026851600168C96A21F47001026830
:1008C000D1620168CA6A818B491E42EA01510268FD
:1008D000D1620168896821F4007102689160016841
:1008E0008A6890F8301042EA4121026891600168FC
:1008F000896821F480610268916001688A684169B1
:1009000042EA81210268916070470000042301409F
:10091000002001400100000F00BFFEE730B5024695
:100920000B464FF6FF70002111E012F8014B6040BA
:1009300000210AE000F0010424B140104AF2010451
:10094000604000E040104C1CE1B20829F2DB1C1EA4
:10095000A3F10105EBB2E8D130BD704710B54FF4FB
:10096000005000F05DFB10BD72B600BFFEE7000056
:1009700018B502460020009000BF92F83C00012804
:1009800001D1022018BD012082F83C0000BF086898
:10099000092826D90868B0F1004F22D01068C06835
:1009A0000B780A3B03EB43040723A34098431368E7
:1009B000D860604B0868984207D11068C0680B7A0D
:1009C00040EA03601368D8601FE00B780A3B03EB32
:1009D0004303886898401368DB6818431368D8603D
:1009E00013E0106800690B7803EB43040723A3406E
:1009F0009843136818610B7803EB430388689840A9
:100A000013681B691843136818614868072817D2D0
:100A10001068406B0B795B1E03EB83041F23A3401C
:100A2000984313685863088880B20B795B1E03EB08
:100A30008303984013685B6B18431368586331E075
:100A400048680D2817D21068006B0B79DB1F03EB89
:100A500083041F23A340984313681863088880B257
:100A60000B79DB1F03EB8303984013681B6B184360
:100A70001368186316E01068C06A0B790D3B03EB2E
:100A800083041F23A34098431368D862088880B268
:100A90000B790D3B03EB830398401368DB6A184323
:100AA0001368D862244B1068984209D10868B0F1E5
:100AB000004F05D12148006820F44000C3F804032A
:100AC0001D4B1068984208D10868122805D11B48B0
:100AD000006840F48000C3F80403174B1068984284
:100AE00020D1144B0868984202D00868112819D107
:100AF0001248006840F40000104B18600D4B086865
:100B000098420FD10E4800680E4BB0FBF3F000EB9B
:100B100080004000009002E00098401E0090009885
:100B20000028F9D100BF002082F83C0000BF00BFC0
:100B300028E70000120000100020014004230140BB
:100B40003C00002040420F0001460868C06C70471E
:100B500070B5044600250CB9012070BD1549A06A86
:100B6000884200D000BF206C30B9204600F024F845
:100B70000020606484F83C00206C00F0100088B90C
:100B8000206C20F4885040F0020020642046FFF7DB
:100B90000BFE00206064206C20F0020040F0010099
:100BA000206400E0012500BF002084F83C0000BF65
:100BB0002846D2E70100000F10B586B00446142184
:100BC00001A8FFF76FFB17492068884227D100BFB3
:100BD0001548006840F480701349086008460068B2
:100BE00000F48070009000BF00BF00BF0E481438B2
:100BF000006840F004000C49143908600846006899
:100C000000F00400009000BF00BF0120019003200D
:100C100002900020039001A9044800F00FFA06B0EA
:100C200010BD00000020014044380240000802408E
:100C300070B504460D4600262068806800F4806088
:100C4000B0F5806F11D12068806800F48070B0F535
:100C5000807F0AD1206C40F02000206400BF00207B
:100C600084F83C0000BF012070BD00F001FB064687
:100C700018E0681CB0B125B100F0FAFA801BA84258
:100C800010D92068006800F0020002280AD0206C09
:100C900040F00400206400BF002084F83C0000BF46
:100CA0000320E1E72068006800F002000228E0D19C
:100CB0006FF0120021680860206C40F4007020641E
:100CC0002068806800F04050B8B9A069A8B92068D1
:100CD000C06A00F4700020B12068806800F4806071
:100CE00058B9206C20F480702064206C00F480508F
:100CF00018B9206C40F0010020640020B4E7000027
:100D000008B501460020009000BF91F83C00012882
:100D100001D1022008BD012081F83C0000BF086815
:100D2000806800F00100A0B90868806840F0010008
:100D30000A6890603D4800683D4AB0FBF2F000EB65
:100D40004000009002E00098401E009000980028AB
:100D5000F9D10868806800F0010000285CD0086CB8
:100D600040F20162904340F4807008640868406873
:100D700000F4806028B1086C20F4005040F48050EA
:100D80000864086C00F48050B0F5805F04D1486CB2
:100D900020F00600486401E00020486400BF002005
:100DA00081F83C0000BF6FF022000A681060214803
:100DB000006800F01F0058B90868806800F04050D3
:100DC00048BB0868806840F080400A6890602BE06B
:100DD000194A086890420AD10868806800F04050BB
:100DE00028B90868806840F080400A68906011481F
:100DF000006800F0100070B9104A0868904213D1E2
:100E00000868806800F0405028B90868806840F0A1
:100E100080400A68906007E0086C40F010000864A9
:100E2000486C40F001004864002073E73C0000205B
:100E300040420F00042301400020014000220140F5
:100E400070B5044600F014FA06462546681C10B139
:100E500004480078054400BF00F00AFA801BA8424D
:100E6000FAD370BD3800002070B52DED028B86B02E
:100E70000546B5F5005F78D1642315224CA1524890
:100E800002F0DCFAC820FFF7DBFF00249FED4F0AD9
:100E9000B0EE408A9FED4D0AF0EE408A002016E049
:100EA0004B4951F820100C444A4901EB800191ED67
:100EB000000A30EE080AB0EE408A474901EB800193
:100EC00091ED000A30EE280AF0EE408A401C14280A
:100ED000E6DB142094FBF0F4B3EE040AC8EE000A3B
:100EE000B0EE608AB3EE040AC8EE800AF0EE608AC3
:100EF0004FF47A73072239A1334802F09FFA224651
:100F000038A101A804F0FEFA01A8FFF7D6F986B2CD
:100F10004FF47A73324601A92B4802F08FFA4FF44E
:100F20007A73062230A1284802F088FAB7EEC80A80
:100F300053EC102B2EA1334804F0E4FA00BF2248F2
:100F40000068C069C0F380100028F8D02D48FFF772
:100F5000B4F986B2C82332462A491B4802F06EFA19
:100F6000B7EEE80A53EC102B00E01DE026A125485F
:100F700004F0C8FA00BF14480068C069C0F38010CC
:100F80000028F8D01F48FFF798F986B2C8233246E8
:100F90001C490D4802F052FA4FF47A7304221EA144
:100FA000094802F04BFA00BF06B0BDEC028B70BDE1
:100FB000417665726167652031302073205065721B
:100FC000696F640A0D000000240300200000000087
:100FD0007C000020CC0000201C0100204C696768C8
:100FE000742020002564000020250A0D0000000068
:100FF00054656D7020202025342E316620430A0D63
:10100000000000004800002048756D69642020251C
:10101000342E316620000000250A0D0A0000000071
:1010200010B5044604480068204020B1024804601E
:101030002046FFF719FF10BD143C0140F8B50246E9
:101040000B46002100250024002000BFE4E001261B
:1010500006FA01F51E6806EA0504AC4271D15E6825
:10106000012E08D05E68022E05D05E68112E02D0D7
:101070005E68122E13D190684F000326BE40B04325
:101080004F00DE68BE4030439060506801268E40BD
:10109000B0431E79C6F300168E4030435060D068CE
:1010A0004F000326BE40B0434F009E68BE40304311
:1010B000D0605E68022E02D05E68122E13D1CF0877
:1010C00002F1200656F827004E07F70E0F26BE4005
:1010D000B0434F07FF0E1E69BE403043CF0802F1F8
:1010E000200646F8270010684F000326BE40B04394
:1010F0001E7906F003064F00BE40304310605E6864
:1011000006F08056B6F1805FA8D100BF444E366825
:1011100046F48046424F3E603E46366806F48046BE
:10112000009600BF00BF3F4E8F0856F827008E077D
:10113000370F0F26BE40B0433B4EB24202D10026CD
:101140002EE068E0394EB24201D1012628E0384E47
:10115000B24201D1022623E0364EB24201D103262B
:101160001EE0354EB24201D1042619E0334EB242A0
:1011700001D1052614E0324EB24201D106260FE01D
:10118000304EB24201D107260AE02F4EB24201D1C1
:10119000082605E02D4EB24201D1092600E00A26BC
:1011A0008F073F0FBE4030431E4E8F0846F8270082
:1011B000274E3068A0435E6806F48036B6F5803F5F
:1011C00000D12043224E3060361D3068A0435E6857
:1011D00006F40036B6F5003F00D120431C4E361D04
:1011E0003060361D3068A0435E6806F48016B6F5A0
:1011F000801F00D12043164E08363060361D3068FF
:10120000A0435E6806F40016B6F5001F00D1204327
:101210000F4E0C363060491C1029FFF418AFF8BD92
:1012200044380240083801400000024000040240F7
:1012300000080240000C024000100240001402406E
:1012400000180240001C024000200240002402401E
:10125000003C0140024613690B400BB1012000E045
:10126000002070470AB1816101E00B04836170477F
:10127000014800687047000030000020024692F8E4
:10128000410020282DD100BF92F84000012801D153
:1012900002207047012082F8400000BF242082F81D
:1012A00041001068006820F00100136818601068A1
:1012B000006820F4805013681860106800680843C4
:1012C000136818601068006840F001001368186027
:1012D000202082F8410000BF002082F8400000BFBB
:1012E000D7E70220D5E710B502460B4692F8410039
:1012F00020282AD100BF92F84000012801D1022005
:1013000010BD012082F8400000BF242082F8410077
:101310001068006820F001001468206010680168FF
:1013200021F4706141EA03211068016010680068CF
:1013300040F0010014682060202082F8410000BFC6
:10134000002082F8400000BFDAE70220D8E7000062
:1013500010B504460CB9012010BD94F8410028B91D
:10136000002084F84000204600F0B6F9242084F8DC
:1013700041002068006820F0010021680860606872
:1013800020F07060216808612068806820F40040C7
:1013900021688860E068012805D1A06840F4004019
:1013A0002168886004E0A06840F4044021688860F7
:1013B000E068022802D18002216848602068406805
:1013C00013490843216848602068C06820F4004041
:1013D0002168C860D4E904010843A16940EA0120FA
:1013E0002168C860D4E907010843216808602068C3
:1013F000006840F00100216808600020606420203F
:1014000084F841000020206384F8420000BFA3E775
:10141000008000022DE9F8430446894616461F461F
:10142000DDF8208094F84100202873D100BF94F8A3
:101430004000012802D10220BDE8F883012084F891
:10144000400000BFFFF714FF054619230122D10316
:101450002046009502F0D8F808B10120ECE72220E0
:1014600084F84100102084F8420000206064666225
:1014700067856063608DFF280CD9FF2020853C487C
:10148000009094F828204FF080734946204602F0DF
:10149000A1F80BE0608D20853548009094F8282055
:1014A0004FF000734946204602F094F83FE02A4688
:1014B0004146204602F0D8F808B10120BCE7206878
:1014C000406A616A0870606A401C6062208D401E3C
:1014D0002085608D401E6085608D40B3208D30BBBF
:1014E0004346002280212046009502F08DF808B185
:1014F0000120A1E7608DFF280DD9FF202085002065
:10150000009094F828204FF080734946204602F05E
:1015100061F80CE02AE0608D20850020009094F8AE
:1015200028204FF000734946204602F053F8608DA2
:101530000028BCD12A464146204602F0E5F808B111
:10154000012079E720202168C861206840680949A6
:10155000084021684860202084F84100002084F879
:10156000420000BF84F8400000BF65E7022063E747
:101570000024008000E800FE2DE9F8430446894677
:1015800016461F46DDF8208094F84100202871D1CE
:1015900000BF94F84000012802D10220BDE8F88382
:1015A000012084F8400000BFFFF762FE05461923C2
:1015B0000122D1032046009502F026F808B101204F
:1015C000ECE7212084F84100102084F8420000203C
:1015D0006064666267856063608DFF280BD9FF20B9
:1015E00020853B48009094F82820C30249462046B5
:1015F00001F0F0FF0AE0608D20853548009094F8F6
:10160000282003034946204601F0E4FF3FE02A4634
:101610004146204602F0A3F808B10120BEE7606A07
:10162000007821688862606A401C6062608D401E9C
:101630006085208D401E2085608D40B3208D30BB9D
:101640004346002280212046009501F0DDFF08B1CD
:101650000120A3E7608DFF280DD9FF202085002001
:10166000009094F828204FF080734946204601F0FE
:10167000B1FF0CE02AE0608D20850020009094F8F6
:1016800028204FF000734946204601F0A3FF608DEB
:101690000028BCD12A464146204602F035F808B160
:1016A00001207BE720202168C86120684068094943
:1016B000084021684860202084F84100002084F818
:1016C000420000BF84F8400000BF67E7022065E7E2
:1016D0000020008000E800FE10B586B0044614210A
:1016E00001A8FEF7DFFD1949206888422CD100BF10
:1016F0001748006840F00200154908600846006875
:1017000000F00200009000BF00BF4FF44070019055
:1017100012200290012003900320049004200590E1
:1017200001A90C48FFF78AFC00BF09481030006887
:1017300040F400100649103108600846006800F4C3
:101740000010009000BF00BF06B010BD0054004064
:101750003038024000040240034800680349097819
:10176000084401490860704730000020380000201C
:1017700010B50A48006840F400700849086008463F
:10178000006840F480700860032000F0A1F8002099
:1017900000F006F800F02AF8002010BD003C0240DE
:1017A00070B504460E4800784FF47A71B1FBF0F042
:1017B0000C490968B1FBF0F5284601F054FA08B16C
:1017C000012070BD102C07D200222146501E00F0CF
:1017D00041F80548046001E00120F2E70020F0E74D
:1017E000380000203C0000203400002008B500BF75
:1017F0000F48006840F080500D49086008460068B6
:1018000000F08050009000BF00BF00BF081D0068BE
:1018100040F48040091D08600846006800F48040DC
:10182000009000BF00BF052000F052F808BD000086
:101830004038024001460846002809DB00F01F033B
:1018400001229A4043099B0003F1E023C3F80021E1
:1018500000BF70472DE9F05F80460D461646002711
:1018600003F064FE074639462A46334601F0070076
:10187000C0F1070ABAF1040F02D94FF0040A01E0DF
:10188000C0F1070AD14600F1040ABAF1070F02D2EB
:101890004FF0000A01E0A0F1030AD4464FF0010A1C
:1018A0000AFA09FAAAF1010A0AEA020A0AFA0CFA81
:1018B0004FF0010B0BFA0CFBABF1010B0BEA030B26
:1018C0004AEA0B042146404603F038FEBDE8F09F8B
:1018D00000BF00F00702064B19684FF6FF031940DE
:1018E000044B0B4343EA0221014B196000BF7047D0
:1018F0000CED00E00000FA0538B5002400BF2048D8
:10190000006840F080501E4908600846006800F0FA
:101910008050009000BF00BF1A48006840F480303B
:1019200018490860FFF7A4FC044607E0FFF7A0FC95
:10193000001BB0F57A7F01D9032038BD11484068FB
:1019400000F48030B0F5803FF0D10E48006840F4DC
:1019500000300C490860FFF78BFC044607E0FFF7F6
:1019600087FC001BB0F57A7F01D90320E5E7054825
:10197000406800F40030B0F5003FF0D10020DCE713
:1019800040380240007000400348006840F4807016
:101990000149086070470000007000402DE9F843DD
:1019A0000446002600250027A846A946207800F016
:1019B000010088B100BFFE48006820F40000FC4927
:1019C000086008460068616B0843F949086000BF79
:1019D000606B08B94FF00108206800F40020B0F5F2
:1019E000002F13D1F2488430006820F44010E16BDE
:1019F0000843EF4984310860E06BB0F5801F01D1E6
:101A00004FF00108E06B08B94FF00109206800F4BD
:101A10008010B0F5801F13D1E5488430006820F4B1
:101A20004000216C0843E24984310860206CB0F525
:101A3000800F01D14FF00108206C08B94FF0010967
:101A4000206800F08070B0F1807F01D14FF0010874
:101A5000207800F02000202870D100BFD448383012
:101A6000006840F08050D24938310860084600686C
:101A700000F08050009000BF00BFCE48006840F4E6
:101A80008070CC490860FFF7F3FB064607E0FFF7DC
:101A9000EFFB801B642802D90320BDE8F883C5480A
:101AA000006800F480700028F1D0C14868300068F8
:101AB00000F4407585B3208E00F44070A8422BD00E
:101AC000BB486830006820F44075B9486830006849
:101AD00040F48030B649683108600846006820F458
:101AE0008030086008460560006800F0010098B189
:101AF000FFF7BEFB064608E0FFF7BAFB801B41F28A
:101B00008831884201D90320C7E7A94868300068B6
:101B1000C0F340000028EFD000BF208E00F44070DA
:101B2000B0F5407F0BD1A248006820F4F810A24A1B
:101B3000216B114008439E49086006E010E09C4874
:101B4000006820F4F8109A490860994868300068E5
:101B5000218EC1F30B01084395496831086000BF2D
:101B6000207800F01000102810D100BF9048843079
:101B7000006820F080708E49843108600846006853
:101B8000A16B08438A498431086000BF208800F4B3
:101B90008040B0F5804F09D185488830006820F436
:101BA0004030616E0843824988310860208800F423
:101BB0000040B0F5004F09D17D488830006820F41E
:101BC0004020A16E08437A4988310860206800F4FB
:101BD0008030B0F5803F09D175488830006820F426
:101BE0004010E16E0843724988310860206800F4B3
:101BF0000030B0F5003F09D16D488830006820F40E
:101C00004000216F08436A4988310860207800F05D
:101C10004000402809D166488830006820F0030061
:101C2000616C0843624988310860207800F08000C8
:101C3000802809D15E488830006820F00C00A16C33
:101C400008435B4988310860208800F48070B0F553
:101C5000807F09D156488830006820F03000E16C60
:101C60000843534988310860208800F40070B0F5BB
:101C7000007F09D14E488830006820F0C000216DF7
:101C800008434B4988310860208800F48060B0F533
:101C9000806F09D146488830006820F44070616D3B
:101CA0000843434988310860208800F40060B0F59B
:101CB000006F09D13E488830006820F44060A16D73
:101CC00008433B4988310860208800F48050B0F513
:101CD000805F09D136488830006820F44050E16DBB
:101CE0000843334988310860208800F40050B0F57B
:101CF000005F09D12E488830006820F44040216EF2
:101D000008432B4988310860206800F48000B0F552
:101D1000800F09D126488830006820F08060A16FCC
:101D20000843234988310860206800F40010B0F5AA
:101D3000001F0FD11E488830006820F00060E16F5E
:101D400008431B4988310860E06FB0F1006F01D192
:101D50004FF00109207800F00800082801D14FF069
:101D60000109206800F48020B0F5802F09D11048C7
:101D70008830006820F04070616F08430C4988315A
:101D80000860206800F40000B0F5000F0AD1084890
:101D90008830006820F08050D4F88010084304494F
:101DA00088310860206800F08060B0F1806F05E045
:101DB0000838024000700040FFFCFF0F08D1CD48FA
:101DC000006820F00050D4F884100843C949086026
:101DD000206800F00060B0F1006F0AD1C548001F14
:101DE000006820F00070D4F888100843C149091F2A
:101DF0000860206800F08050B0F1805F0AD1BD48D3
:101E0000001F006820F08060D4F88C100843B949A6
:101E1000091F0860B8F1010F05D0206800F00070BC
:101E2000B0F1007F7ED1B3489038006820F0806028
:101E3000B04990390860FFF71BFA064606E0FFF745
:101E400017FA801B642801D9032026E6A948903898
:101E50000068C0F3C0600028F1D1207800F00100D4
:101E6000B8B1606BA8B9A3480C380068C0F301454D
:101E7000A0480C380068C0F303676068800140EA3E
:101E8000054040EA0761207A41EA007099490C391F
:101E90000860206800F40020B0F5002F03D1E06B4B
:101EA000B0F5801F09D0206800F48010B0F5801FC5
:101EB00024D1206CB0F5800F20D18E480C380068FA
:101EC000C0F301458B480C380068C0F302776068A6
:101ED000800140EA0541207B41EA006040EA07704A
:101EE00084490C3908608348001F006820F01F00F7
:101EF000616A491E08437F49091F0860206800F095
:101F00008070B0F1807F17D17A480C380068C0F338
:101F1000036578480C380068C0F302776068810177
:101F2000208A00E036E041EA004040EA056040EAED
:101F3000077070490C390860206800F00070B0F13B
:101F4000007F0DD160688101208A41EA0041207B39
:101F500041EA0061207A41EA007066490C39086064
:101F600064489038006840F08060624990390860A9
:101F7000FFF77EF9064606E0FFF77AF9801B642832
:101F800001D9032089E55B4890380068C0F3C06040
:101F90000028F1D0B9F1010F7ED156489038006881
:101FA00020F08050534990390860FFF761F90646E8
:101FB00006E0FFF75DF9801B642801D903206CE57A
:101FC0004C4890380068C0F340700028F1D1206878
:101FD00000F40020B0F5002F01D1E06B38B120688B
:101FE00000F48010B0F5801F22D1206C00BB414866
:101FF00008380068C0F301453E4808380068C0F35F
:1020000002776069800140EA0541207E41EA006074
:1020100040EA0770374908390860081D006820F455
:10202000F851A06A401E41EA00203249091F0860A9
:10203000206800F40010B0F5001F19D1E06FB0F176
:10204000006F15D12B4808380068C0F30365294894
:1020500008380068C0F3027760698101208C41EA8A
:10206000004040EA056040EA0770224908390860EC
:10207000207800F00800082820D11E4808380068A1
:10208000C0F303651B4808380068C0F30147606966
:10209000800140EA074000E02AE040EA0561207F35
:1020A00041EA0070134908390860081D006820F4EF
:1020B0004030E16A08430F49091F08600D48903815
:1020C000006840F080500B4990390860FFF7D0F865
:1020D000064606E0FFF7CCF8801B642801D90320F0
:1020E000DBE4044890380068C0F340700028F1D069
:1020F0000020D2E49038024070B504460D46002618
:102100000CB9012070BD5C48006800F00F00A842C7
:102110000ED25948006820F00F0028435649086045
:102120000846006800F00F00A84201D00120E9E74E
:10213000207800F0020002281DD1207800F0040071
:10214000042805D14D48006840F4E0504B49086030
:10215000207800F00800082805D14848006840F4BD
:102160006040464908604548006820F0F000A168DA
:10217000084342490860207800F0010090B360688D
:10218000012807D13D4808380068C0F34040A0B995
:102190000120B7E76068022807D13848083800688E
:1021A000C0F3406048B90120ACE734480838006803
:1021B000C0F3400008B90120A4E73048006820F0CF
:1021C0000300616808432D490860FFF751F806468F
:1021D00009E0FFF74DF8801B41F28831884202D9AF
:1021E00003208FE707E02548006800F00C006168D5
:1021F000B0EB810FEDD12048006800F00F00A8423D
:102200000ED91D48006820F00F0028431A490860C5
:102210000846006800F00F00A84201D0012071E7D5
:10222000207800F00400042807D11448006820F446
:10223000E050E168084311490860207800F0080088
:10224000082808D10D48006820F46040216940EA60
:10225000C1000A49086000F03FF808490968C1F365
:102260000311074A515CC8400649086006480068E7
:10227000FFF796FA002045E7003C0240083802408C
:102280002C6A00083C00002034000020014800684F
:10229000704700003C00002000B5FFF7F7FF04493D
:1022A0000968C1F38221034A515CC84000BD0000A7
:1022B000083802403C6A000800B5FFF7E7FF044910
:1022C0000968C1F34231034A515CC84000BD0000B7
:1022D000083802403C6A00082DE9F0470024002538
:1022E0000026A1462548006800F00C0020B1042813
:1022F00005D008283AD105E0DFF8849039E0DFF80E
:10230000849036E01D48001F006800F03F041B4821
:10231000001F006800F4800078B11A481749091FAF
:102320000968C1F38811A0FB017001462246002311
:102330003846FDF77FFF05460EE011480F49091F9B
:102340000968C1F38811A0FB0170014622460023F1
:102350003846FDF76FFF05460848001F0068C0F3C8
:102360000140401C4600B5FBF6F902E0DFF8109092
:1023700000BF00BF4846BDE8F087000008380240B3
:102380000024F40000127A00F8B5044600270CB9C6
:102390000120F8BD207800F00100002871D0F94834
:1023A000006800F00C0004280DD0F648006800F02A
:1023B0000C00082813D1F348001F006800F48000C7
:1023C000B0F5800F0BD1EF4808380068C0F34040EB
:1023D000002869D06068002866D10120D9E700BFD5
:1023E0006068B0F5803F08D1E6480838006840F4DE
:1023F0008030E449083908602EE0606868B9E14837
:102400000838006820F48030DE4908390860084642
:10241000006820F4802008601EE06068B0F5A02FFE
:102420000DD1D8480838006840F48020D5490839D3
:1024300008600846006840F4803008600CE0D1482D
:102440000838006820F48030CE4908390860084612
:10245000006820F48020086000BF606890B1FEF73B
:1024600007FF054606E0FEF703FF401B642801D97D
:1024700003208EE7C34808380068C0F340400028B6
:10248000F1D011E0FEF7F4FE054606E0FEF7F0FE9F
:10249000401B642801D903207BE7BA48083800684C
:1024A000C0F340400028F1D1207800F0020002285B
:1024B00069D1B448006800F00C0058B1B148006818
:1024C00000F00C0008281CD1AE48001F006800F482
:1024D0008000B0B9AB4808380068C0F3400020B1B4
:1024E000E068012801D0012053E7A64808380068B9
:1024F00020F0F800216940EAC100A24908390860CB
:1025000041E0E06828B39F480838006840F00100C7
:102510009C4908390860FEF7ABFE054606E0FEF769
:10252000A7FE401B022801D9032032E7954808384E
:102530000068C0F340000028F1D0924808380068D5
:1025400020F0F800216940EAC1008E49083908608E
:1025500019E08C480838006820F0010089490839E2
:102560000860FEF785FE054606E0FEF781FE401B8B
:10257000022801D903200CE7824808380068C0F31C
:1025800040000028F1D1207800F00800082836D15A
:102590006069D0B17B486C30006840F00100794937
:1025A0006C310860FEF764FE054606E0FEF760FE4B
:1025B000401B022801D90320EBE672486C3000680A
:1025C000C0F340000028F1D019E06E486C3000687C
:1025D00020F001006B496C310860FEF749FE0546AA
:1025E00006E0FEF745FE401B022801D90320D0E695
:1025F00064486C300068C0F340000028F1D12078B6
:1026000000F00400042874D15E483830006800F0FF
:10261000805080B900BF5B483830006840F080507F
:102620005849383108600846006800F08050009032
:1026300000BF00BF01275448006800F48070B0B9A3
:102640005148006840F480704F490860FEF710FE62
:10265000054606E0FEF70CFE401B642801D9032066
:1026600097E64948006800F480700028F2D000BF67
:10267000A068012808D143486830006840F0010094
:102680004049683108602DE0A06868B93D4868306D
:10269000006820F001003B49683108600846006886
:1026A00020F0040008601DE0A06805280DD1354821
:1026B0006830006840F0040032496831086008461C
:1026C000006840F0010008600CE02E4868300068A7
:1026D00020F001002B49683108600846006820F0AE
:1026E0000400086000BFA068A8B1FEF7C1FD054660
:1026F00009E02EE0FEF7BCFD401B41F28831884224
:1027000001D9032045E61F4868300068C0F3400047
:102710000028EFD013E0FEF7ABFD054608E0FEF71A
:10272000A7FD401B41F28831884201D9032030E6E1
:10273000144868300068C0F340000028EFD1012F32
:1027400007D110483830006820F080500D493831EA
:102750000860A069002854D00A48006800F00C0006
:10276000082867D0A06902284CD1064808380068BC
:1027700020F08070034908390860FEF779FD0546AE
:102780000BE000000838024000700040FEF770FDCA
:10279000401B022801D90320FBE53F480068C0F335
:1027A00040600028F2D1D4E907010843616A40EA99
:1027B00081110122A06AC2EB500041EA00412C20A5
:1027C000005D41EA00613020005D41EA007032495D
:1027D000091D0860081F006840F08070091F08602C
:1027E000FEF746FD054606E0FEF742FD401B0228C7
:1027F00001D90320CDE528480068C0F340600028D7
:10280000F2D047E02448006820F080702249086038
:10281000FEF72EFD054606E0FEF72AFD401B0228C6
:1028200001D90320B5E51C480068C0F340600028CA
:10283000F2D12FE01848001D0668A069012827D0B2
:1028400006F48001E069814222D106F03F01206A4E
:1028500081421DD147F6C0703040616AB0EB811FE4
:1028600016D106F440310122A06AC2EB5000B1EB50
:10287000004F0DD106F070612C20005DB1EB006FB0
:1028800006D106F0E0413020005DB1EB007F01D0C1
:1028900001207EE500207CE50038024010B50446AA
:1028A0000CB9012010BD607920B9002020712046AC
:1028B00000F00EF8022060712068006840F004000B
:1028C00021680860012060710020A06000BFE9E776
:1028D00008B5094A016891420DD100BF074909684E
:1028E00041F04001054A11601146096801F04001BC
:1028F000009100BF00BF08BD0008065034380240F8
:1029000070B504460CB9012070BD606A38B96068C2
:10291000B0F5827F00D105E00021E16102E00021F5
:10292000216161610021A16294F85D0028B9002055
:1029300084F85C00204600F061F8022084F85D0015
:102940002068006820F0400021680860E068B0F569
:10295000E06F01D9002501E04FF48055E068B0F543
:10296000706F05D0E068B0F5E06F01D00021A16282
:10297000A08800F48270218901F404410843217C7D
:1029800001F002010843217D01F001010843218B80
:1029900001F400710843217F01F038010843202130
:1029A000095D01F080010843218D01F400510843C5
:1029B000216808600421A06901EA104094F82410FD
:1029C00001F01001084394F8341001F008010843A5
:1029D000A18901F47061084305F48051084321681E
:1029E00048602068C06920F400602168C861002048
:1029F0002066012084F85D00002085E710B586B0D0
:102A00000446142101A8FDF74DFC194920688842AD
:102A10002CD100BF1748006840F4801015490860A9
:102A20000846006800F48010009000BF00BF00BF9F
:102A300010481438006840F020000E49143908602E
:102A40000846006800F02000009000BF00BF4FF46F
:102A500060700190022002900020039003200490F7
:102A60000520059001A90448FEF7E8FA06B010BD5C
:102A70000050014044380240001402402DE9F84F54
:102A80000446884616461D464FF0000A00BF94F8DB
:102A90005C00012802D10220BDE8F88F012084F8F3
:102AA0005C0000BFFEF7E4FB0746B14694F85D000A
:102AB000012802D04FF0020ACBE0B8F1000F00D09D
:102AC00016B94FF0010AC4E0032084F85D0000202D
:102AD0002066C4F83880A687E6872064A4F84400FE
:102AE000A4F846002065E064A068B0F5004F0BD163
:102AF0002068006820F040002168086020680068B5
:102B000040F48040216808602068006800F04000C0
:102B1000402805D02068006840F040002168086027
:102B2000E068B0F5E06F2FD9606810B1B9F1010F1E
:102B300009D1A06B00882168C860A06B801CA063CD
:102B4000E08F401EE0871BE02068806800F00200F4
:102B500002280AD1A06B00882168C860A06B801C85
:102B6000A063E08F401EE0870AE0FEF781FBC01BF8
:102B7000A84201D3681C00B915B94FF0030A68E0F8
:102B8000E08F0028E0D14AE0606810B1B9F1010F90
:102B900017D1E08F01280AD9A06B00882168C8608E
:102BA000A06B801CA063E08F801EE08709E0A06B13
:102BB000007821680873A06B401CA063E08F401E62
:102BC000E08729E02068806800F00200022818D120
:102BD000E08F01280AD9A06B00882168C860A06B2B
:102BE000801CA063E08F801EE08715E0A06B00785A
:102BF00021680873A06B401CA063E08F401EE08733
:102C00000AE0FEF735FBC01BA84201D3681C00B9DF
:102C100015B94FF0030A1CE0E08F0028D2D13A46E4
:102C20002946204601F04EFD08B120202066A0680C
:102C300050B900BF002000902068C0680090206854
:102C40008068009000BF00BF206E08B14FF0010AFD
:102C500000BF012084F85D0000BF002084F85C0004
:102C600000BF504618E770B504462546681EB0F10F
:102C7000807F01D301200FE0681E4FF0E021486102
:102C80000F214FF0FF3002F059FC00204FF0E021FF
:102C9000886107200861002070BD70477047704749
:102CA00030B502460B4600BF92F83C00012801D126
:102CB000022030BD012082F83C0000BF022082F8D3
:102CC0003D001068416810688468214D1068A84272
:102CD00003D0204D1068A84203D121F47001586838
:102CE000014321F070011868014310684160184DDC
:102CF0001068A8421BD01068B0F1804F17D0164D55
:102D00001068A84213D0154D1068A8420FD0144D7A
:102D10001068A8420BD00F4D1068A84207D0114D83
:102D20001068A84203D0104D1068A84205D124F0C5
:102D300080049868044310688460012082F83D0094
:102D400000BF002082F83C0000BF00BFB1E70000D8
:102D50000000014000040140000400400008004061
:102D6000000C0040004001400018004010B504462F
:102D70000CB9012010BD94F83D0028B9002084F85A
:102D80003C00204600F02AF8022084F83D00211D76
:102D9000206801F045FE012084F8480000BF84F857
:102DA0003E0001213F2001554020015541200155A1
:102DB000422001554320015500BF00BF012084F887
:102DC000440045200155462001554720015500BFCC
:102DD000012084F83D000020CCE7000038B504460F
:102DE00017492068884216D100BF1648006840F095
:102DF0000100144908600846006800F001000090D6
:102E000000BF00BF002201211920FEF723FD192079
:102E1000FEF710FD13E02068B0F1804F0FD100BF26
:102E20000848001F006840F001000649091F0860BB
:102E30000846006800F00100009000BF00BF38BDE8
:102E400000000140443802402DE9F04104460D469F
:102E500000BF94F83C00012802D10220BDE8F081B7
:102E6000012084F83C0000BF022084F83D00206867
:102E700086683748064026F47F46206886602868C2
:102E8000502833D00CDC202850D004DC00284BD054
:102E9000102851D149E0302849D040284CD139E0A0
:102EA00060282DD0702807D0B0F5805F03D0B0F532
:102EB000005F41D10DE040E0D5E902136A68206867
:102EC00001F01AFE2068866846F077062068866062
:102ED00033E0D5E902136A68206801F00DFE20682E
:102EE000806840F480402168886026E0EA6869686C
:102EF000206801F04BFF5021206801F008FE1CE023
:102F0000EA686968206801F054FF6021206801F0D8
:102F1000FEFD12E0EA686968206801F037FF402191
:102F2000206801F0F4FD08E000BF00BF00BF296881
:102F3000206801F0ECFD00E000BF00BF012084F834
:102F40003D0000BF002084F83C0000BF00BF85E7C3
:102F500088FFFEFF704710B5044620680069C0F383
:102F60004000D8B12068C068C0F34000B0B16FF035
:102F7000020021680861012020772068806900F044
:102F8000030018B12046FFF7E5FF05E0204600F0FA
:102F9000EBF8204600F0D5F9002020772068006982
:102FA000C0F38000D8B12068C068C0F38000B0B121
:102FB0006FF0040021680861022020772068806992
:102FC00000F4407018B12046FFF7C4FF05E020462A
:102FD00000F0CAF8204600F0B4F9002020772068FD
:102FE0000069C0F3C000D8B12068C068C0F3C00059
:102FF000B0B16FF0080021680861042020772068D4
:10300000C06900F0030018B12046FFF7A3FF05E0F8
:10301000204600F0A9F8204600F093F90020207720
:1030200020680069C0F30010D8B12068C068C0F300
:103030000010B0B16FF010002168086108202077FF
:103040002068C06900F4407018B12046FFF782FF85
:1030500005E0204600F088F8204600F072F90020D4
:1030600020772068006900F0010058B12068C0682E
:1030700000F0010030B16FF00100216808612046C6
:1030800000F060F920680069C0F3C01058B12068F2
:10309000C068C0F3C01030B16FF0800021680861D3
:1030A0002046FFF7FBFD20680069C0F3002058B1FF
:1030B0002068C068C0F3C01030B16FF48070216820
:1030C00008612046FFF7E9FD20680069C0F3801021
:1030D00058B12068C068C0F3801030B16FF0400074
:1030E00021680861204600F02EF920680069C0F3CD
:1030F000401058B12068C068C0F3401030B16FF084
:103100002000216808612046FFF7C9FD10BD0000BE
:1031100010B586B00446142101A8FDF7C3F8206855
:10312000B0F1804F1AD100BF0D48006840F0010097
:103130000B4908600846006800F00100009000BFDD
:1031400000BF012001900220029000200390049013
:103150000120059001A90348FDF770FF06B010BDDE
:103160003038024000000240704770B504460D46FA
:10317000164600BF94F83C00012801D1022070BD22
:10318000012084F83C0000BF0C2E51D005DC4EB16C
:10319000042E1ED0082E7AD133E0102E60D0142ECB
:1031A000F9D175E02946206801F0BAFC20688069F1
:1031B00040F00800216888612068806920F00400E0
:1031C00021688861206880692969084321688861CD
:1031D00077E02946206801F0DDFC2068806940F432
:1031E0000060216888612068806920F4806021681F
:1031F000886120688069296940EA01202168886126
:103200005FE02946206801F005FD2068C06940F0B4
:1032100008002168C8612068C06920F004002168A6
:10322000C8612068C069296908432168C86148E00D
:103230002946206801F02CFD2068C06940F4006038
:103240002168C8612068C06920F480602168C86175
:103250002068C069296940EA01202168C86130E01E
:103260002946206801F040FD2068406D40F00800CC
:10327000216848652068406D20F004002168486599
:103280002068406D296908432168486519E017E006
:103290002946206801F050FD2068406D40F4006030
:1032A000216848652068406D20F480602168486589
:1032B0002068406D296940EA01202168486500E0E6
:1032C00000BF00BF00BF002084F83C0000BF00BF6B
:1032D00055E710B504460CB9012010BD94F83D0027
:1032E00028B9002084F83C00204600F029F802208C
:1032F00084F83D00211D206801F092FB012084F834
:10330000480000BF84F83E0001213F2001554020C5
:10331000015541200155422001554320015500BF70
:1033200000BF012084F84400452001554620015586
:103330004720015500BF012084F83D000020CCE764
:10334000704770477047704710B504460CB90120AC
:1033500010BDA06900B100E000BFA06F28B9002037
:1033600084F87400204600F029F82420A067206823
:10337000006820F0010021680860204601F0C6FEC8
:10338000012800D1E4E7606A10B1204601F008FE90
:103390002068406820F49040216848602068806878
:1033A00020F02A00216888602068006840F0010051
:1033B00021680860204601F06FFEC9E710B586B0AD
:1033C0000446142101A8FCF76DFF194920688842C2
:1033D0002CD100BF1748006840F4802015490860D0
:1033E0000846006800F48020009000BF00BF00BFC6
:1033F00010481038006840F008000E491039086085
:103400000846006800F00800009000BF00BF4FF4BD
:10341000407001900220029000200390032004904D
:103420000720059001A90448FDF708FE06B010BD6D
:103430000048004040380240000C02402DE9F84F9F
:1034400004460E4617469946A06F20285DD106B166
:1034500017B90120BDE8F88F00BF94F87400012867
:1034600001D10220F6E7012084F8740000BF00209B
:10347000503420632120A062FDF7FAFE82462780A7
:103480006780503CA068B0F5805F04D1206910B916
:103490000025B04602E035464FF0000800BF00208E
:1034A00084F8740000BF1DE05346002280212046AE
:1034B000CDF8009001F0C8FF08B10320CAE745B974
:1034C000B8F80000C0F308002168886208F102081B
:1034D00003E02878216888626D1CB4F85200401E11
:1034E000A4F85200B4F852000028DDD1534600225F
:1034F00040212046CDF8009001F0A6FF08B103203E
:10350000A8E72020A0670020A4E70220A2E700BFD0
:10351000FEE701688969C1F3400111B10021026829
:1035200091620168896901F0010129B9016889691D
:1035300041F00101026891617047000070B50446D6
:103540000D46164620688069C0F3001000283DD063
:1035500017E0681CA8B1FDF78BFE801BA84200D8BD
:103560007DB9606C40F020006064202084F8410048
:10357000002084F8420000BF84F8400000BF012012
:1035800070BD20688069C0F340100028E1D0102091
:103590002168C86120202168C8612046FFF7B9FF73
:1035A000206840680A49084021684860606C40F023
:1035B00004006064202084F84100002084F8420068
:1035C00000BF84F8400000BF0120D9E70020D7E702
:1035D00000E800FEF0B5059C05686D684FF4806654
:1035E00006EA545666F0FC2646F4C046B543C1F3DD
:1035F00009064FF47F0707EA02473E431E4326436E
:10360000354306687560F0BD2DE9F04104460E466D
:1036100017461D46DDF8188019E0681CB8B1FDF7A3
:1036200027FEA0EB0800A84200D885B9606C40F0E6
:1036300020006064202084F84100002084F84200CB
:1036400000BF84F8400000BF0120BDE8F081206881
:1036500080693040B04201D1012000E00020B84232
:10366000DBD00020F1E7000070B504460D46164699
:1036700040E0324629462046FFF760FF08B10120AE
:1036800070BD20688069C0F34010F8B1206880697F
:10369000C0F3800018B1208D08B10020F0E7202091
:1036A0002168C86120684068164908402168486060
:1036B00000206064202084F84100002084F842004B
:1036C00000BF84F8400000BF0120D9E7FDF7D0FD1E
:1036D000801BA84200D86DB9606C40F02000606487
:1036E000202084F8410000BF002084F8400000BF83
:1036F0000120C5E720688069C0F380000028B8D0A9
:103700000020BDE700E800FE70B504460D461646F1
:103710001DE0324629462046FFF710FF08B1012080
:1037200070BDFDF7A5FD801BA84200D87DB9606C77
:1037300040F020006064202084F84100002084F8DC
:10374000420000BF84F8400000BF0120E8E7206885
:103750008069C0F340100028DBD00020E0E770B59E
:1037600004460D4616461FE0324629462046FFF71E
:10377000E5FE08B1012070BD681CA8B1FDF778FD19
:10378000801BA84200D87DB9606C40F020006064C6
:10379000202084F84100002084F8420000BF84F813
:1037A000400000BF0120E6E720688069C0F34000C8
:1037B0000028D9D00020DEE72DE9FE4F81460F46D4
:1037C00090469A460C9CCB46BBF1200F02DA4FF094
:1037D000000903E0ABF1200000F0FF0B002009E03E
:1037E0000BEB4B01204A02EB4101095C01AA115489
:1037F000411CC8B20628F3DB0D980090E004030CCE
:1038000004EB44004004020C4146384600F0D0F975
:10381000002524E000261EE001A8405D0121B14002
:103820000840B0B1012C08D108EB060291B27A1918
:1038300090B2524600F004F90BE006FB048291B20C
:1038400005FB047290B223462246CDF800A000F09A
:10385000AFF9701CC6B2082EDEDB681CC5B2062D9F
:10386000D8DBBDE8FE8F0000EC6700082DE9FC5FA7
:1038700007460D4600264FF4FA70B0EB450F01D90C
:103880002E4601E04FF4FA76012251022148FDF75D
:10389000E9FC00224FF480711E48FDF7E3FC38126A
:1038A0000190B246504602F027FE0446002004E094
:1038B00001992154411C6754801CB042F8D34FEA4F
:1038C0004508B8FBF6F9B8FBF6F006FB108000904F
:1038D000B9F1000F0CD04FF0000B07E0B2B20A2391
:1038E00021460D48FFF7CAF80BF1010BCB45F5D384
:1038F000009882B20A2321460748FFF7BFF8012249
:1039000011020448FDF7AEFC204602F0EBFABDE8D8
:10391000FC9F000000080240280200202DE9FF4F14
:1039200081B006460F4691464C4600250120A0EB8B
:10393000490A00200090834639E0A6EB04080FE016
:103940007A1991B21FFA88F0049A00F079F87A1B7C
:1039500091B21FFA88F0049A00F072F808F1010899
:1039600030194045ECDAA6EB05080FE03A1991B2A0
:103970001FFA88F0049A00F063F83A1B91B21FFA1C
:1039800088F0049A00F05CF808F1010870194045CD
:10399000ECDA6D1C009883440098801C00900AEBC0
:1039A0004B00002803DD641ED3440AF1020AAC4236
:1039B000C3DA05B0BDE8F08F2DE9F04F85B00446BD
:1039C0000D4616461F46DDF838904FF0000A0020DD
:1039D000049083460390804602900190A6EB040871
:1039E000B8F1000F01DA4FF0010B4FF00008A7EB20
:1039F0000508B8F1000F01DA01200390BBF1000FB8
:103A000004D1301B1FFA80FA029403E0A01B1FFAB6
:103A100080FA0296039820B9781B80B20490019531
:103A200003E0E81B80B204900197CDF80090524665
:103A3000049BDDE9011000F0BBF805B0BDE8F08F94
:103A4000FEB504460D46164655480088844203DA02
:103A500054480088854200DBFEBD00224FF400710F
:103A60005148FDF7FFFB00224FF480714E48FDF7EF
:103A7000F9FB2A2000F04CFA012251024A48FDF7D6
:103A8000F1FB012211024848FDF7ECFB00224FF444
:103A900080714548FDF7E6FB20128DF80800E0B282
:103AA0008DF80900601C000A8DF80A00601CC0B285
:103AB0008DF80B000123042202A93C48FEF7DEFF2B
:103AC000012211023848FDF7CDFB00224FF40071AE
:103AD0003548FDF7C7FB00224FF480713248FDF7EF
:103AE000C1FB2B2000F014FA012251022E48FDF7F1
:103AF000B9FB012211022C48FDF7B4FB00224FF460
:103B000080712948FDF7AEFB28128DF80400E8B259
:103B10008DF80500681C000A8DF80600681CC0B20C
:103B20008DF807000123042201A92048FEF7A6FF13
:103B3000012211021C48FDF795FB00224FF4007191
:103B40001948FDF78FFB00224FF480711648FDF7EE
:103B500089FB2C2000F0DCF9012251021248FDF70C
:103B600081FB012211021048FDF77CFB00224FF47B
:103B700080710D48FDF776FB30128DF80000F0B231
:103B80008DF801000123022269460848FEF776FFFE
:103B9000012211020448FDF765FB00BF5CE700004D
:103BA000020000200000002000080240280200203F
:103BB0002DE9F04104460D4616461F46DDF81880F3
:103BC00017480088844203DA16480088854201DBE2
:103BD000BDE8F081A019401E11490988884203DB25
:103BE0000F480088001B86B2E819401E0D4909885D
:103BF000884203DB0B480088401B87B2E819401E4F
:103C000083B2A019401E82B22946204600F08AF9EC
:103C100007FB06F14046FFF729FE00BFD8E700008A
:103C200002000020000000202DE9FC4704460D465C
:103C300017469846DDE90A690CE0CDE9006914F8F9
:103C4000010B43463A462946FFF7B6FD062000FB26
:103C5000065085B220780028EFD1BDE8FC8700002F
:103C600010B5012291020248FDF7FCFA10BD0000D8
:103C70000008024010B50446084803880848028836
:103C80000021084600F04EF905480088034A1288D2
:103C900000FB02F12046FFF7E9FD10BD0000002007
:103CA0000200002010B5FFF7DBFF00F023F900F061
:103CB00005F9012000F0A4F94FF47A70FDF7C0F87F
:103CC000CB2000F09DF9392000F0B4F92C2000F051
:103CD000B1F9002000F0AEF9342000F0ABF9022079
:103CE00000F0A8F9CF2000F08BF9002000F0A2F935
:103CF000C12000F09FF9302000F09CF9E82000F08E
:103D00007FF9852000F096F9002000F093F97820E3
:103D100000F090F9EA2000F073F9002000F08AF931
:103D2000002000F087F9ED2000F06AF9642000F02F
:103D300081F9032000F07EF9122000F07BF9812048
:103D400000F078F9F72000F05BF9202000F072F91C
:103D5000C02000F055F9232000F06CF9C12000F0DC
:103D60004FF9102000F066F9C52000F049F93E2017
:103D700000F060F9282000F05DF9C72000F040F95C
:103D8000862000F057F9362000F03AF9482000F07C
:103D900051F93A2000F034F9552000F04BF9B120E8
:103DA00000F02EF9002000F045F9182000F042F94B
:103DB000B62000F025F9082000F03CF9822000F040
:103DC00039F9272000F036F9F22000F019F9002027
:103DD00000F030F9262000F013F9012000F02AF954
:103DE000E02000F00DF90F2000F024F9312000F060
:103DF00021F92B2000F01EF90C2000F01BF90E20F9
:103E000000F018F9082000F015F94E2000F012F922
:103E1000F12000F00FF9372000F00CF9072000F036
:103E200009F9102000F006F9032000F003F90E2034
:103E300000F000F9092000F0FDF8002000F0FAF889
:103E4000E12000F0DDF8002000F0F4F80E2000F092
:103E5000F1F8142000F0EEF8032000F0EBF8112048
:103E600000F0E8F8072000F0E5F8312000F0E2F873
:103E7000C12000F0DFF8482000F0DCF8082000F056
:103E8000D9F80F2000F0D6F80C2000F0D3F831203C
:103E900000F0D0F8362000F0CDF80F2000F0CAF87E
:103EA000112000F0ADF87820FCF7CAFF292000F0BF
:103EB000A7F8002000F060F810BD000010B5002247
:103EC0004FF480610A48FDF7CDF9C820FCF7B8FF30
:103ED00000224FF480710648FDF7C4F9C820FCF7B2
:103EE000AFFF012291020248FDF7BCF910BD0000AE
:103EF0000008024010B500F081FA00F007F9002236
:103F00004FF480710148FDF7ADF910BD0008024083
:103F100001B501231A4669460148FEF7AFFD08BD09
:103F2000280200202DE9F04104460D4616461F46A2
:103F30002A2000F065F8201200F07CF8E0B200F0D2
:103F400079F8301200F076F8F0B200F073F82B2018
:103F500000F056F8281200F06DF8E8B200F06AF8A8
:103F6000381200F067F8F8B200F064F82C2000F086
:103F700047F8BDE8F081000070B5044625463620BC
:103F800000F03EF80120FCF75BFF35B1012D0FD0AA
:103F9000022D18D0032D2CD120E0482000F04AF843
:103FA000F020154908804FF4A0701449088021E0E2
:103FB000282000F03FF84FF4A0700F490880F0204F
:103FC0000E49088016E0882000F034F8F0200A49F5
:103FD00008804FF4A070094908800BE0E82000F049
:103FE00029F84FF4A07004490880F02003490880A4
:103FF00000E000BF00BF70BD0200002000000020F4
:1040000010B5044600224FF480710948FDF72AF9E3
:1040100000224FF400710648FDF724F92046FFF70F
:1040200077FF012211020248FDF71CF910BD0000C4
:104030000008024010B50446012251020848FDF76D
:1040400011F900224FF480710548FDF70BF9204665
:10405000FFF75EFF012211020148FDF703F910BDD1
:104060000008024070B504460D462678A07A08B9CB
:10407000002070BD16B1012E0AD104E02946204669
:1040800002F024F904E02946204602F0AFFA00BF0E
:1040900000BF0020EDE700001FB500200090019058
:1040A000029003901648174908604FF4803048602A
:1040B000002114488160016101218161002180F8A3
:1040C0002010C162104981620021C1600121C161DB
:1040D000002180F830104161FCF73AFD08B1FCF78F
:1040E00043FC0A20009001200190002002906946C4
:1040F0000448FCF73DFC08B1FCF736FC1FBD00008E
:1041000000200140840100200100000F00B587B0AD
:10411000142102A8FCF7C6F800BF9348006840F0DD
:104120001000914908600846006800F010000190F6
:1041300000BF00BF00BF0846006840F004000860F0
:104140000846006800F00400019000BF00BF00BFF7
:104150000846006840F0200008600846006800F04B
:104160002000019000BF00BF00BF0846006840F07B
:10417000800008600846006800F08000019000BFE1
:1041800000BF00BF0846006840F001000860084614
:10419000006800F00100019000BF00BF00BF0846AA
:1041A000006840F0020008600846006800F0020065
:1041B000019000BF00BF00BF0846006840F0080043
:1041C00008600846006800F00800019000BF00BFCA
:1041D00000BF0846006840F04000086008460068DC
:1041E00000F04000019000BF00BF002268215F483E
:1041F000FDF738F8002244F281015D48FDF732F8FE
:10420000002240215B48FDF72DF800224FF4E061C9
:104210005948FDF727F814200290002003900490DD
:1042200002A95248FCF70AFF68200290012003907F
:1042300000200490059002A94C48FCF7FFFE4FF4C3
:10424000005002904D4803900020049002A94A4873
:10425000FCF7F4FE3220029002200390002004902C
:10426000032005900B20069002A94348FCF7E6FEC8
:1042700086200290022003900020049003200590E5
:104280000B20069002A93E48FCF7D8FE44F28100BC
:1042900002900120039000200490059002A9344868
:1042A000FCF7CCFE4FF40050029002200390002057
:1042B0000490032005900B20069002A92C48FCF7DF
:1042C000BDFE402002900120039000200490059044
:1042D00002A92848FCF7B2FE80200290002003903B
:1042E000049002A92348FCF7A9FE4FF4E060029075
:1042F0000120039000200490059002A91E48FCF7BD
:104300009DFE4FF4E850029002200390002004909C
:10431000032005900A20069002A91948FCF78EFE9A
:104320004FF40070029000200390049002A91448FA
:10433000FCF784FE4FF420500290022003900020EE
:104340000490032005900B20069002A90948FCF771
:1043500075FE002202212820FDF77CFA2820FDF7B7
:1043600069FA07B000BD000030380240001002407A
:104370000004024000180240000802400000111032
:104380000000024010B51248124908601248486007
:104390000021104881600121C1600021016141615B
:1043A0008161C1610162FCF7D3FF08B1FCF7DCFA5F
:1043B00000210848FCF762FF08B1FCF7D5FA00219C
:1043C0000448FCF790FF08B1FCF7CEFA10BD0000DE
:1043D00000540040CC010020FFEAC00010B50548A1
:1043E000054908600846FEF759FA08B1FCF7BCFA1F
:1043F00010BD0000000806501802002010B511483A
:10440000114908604FF48270486000210E488160B5
:104410004FF4E061C1600021016141614FF400711E
:1044200081610021C1610162416281620721C16233
:10443000002101634163FEF763FA08B1FCF794FAC7
:1044400010BD0000005001402802002000B587B0D8
:104450000020039004900590069000900190029037
:1044600015481649086042F2107048600021134850
:104470008160C1604FF480710161002141618161FF
:10448000FEF774FC08B1FCF76FFA4FF4805003900C
:1044900003A90A48FEF7D8FC08B1FCF765FA00202A
:1044A00000900190029069460448FEF7F9FB08B1BC
:1044B000FCF75AFA07B000BD000001408C02002052
:1044C00000B58FB000200B900C900D900E900890CE
:1044D00009900A901C2101A8FBF7E4FE4FF08040F0
:1044E0001E4908600020486000211C488160491E68
:1044F000C160002101618161FEF738FC08B1FCF761
:1045000033FA4FF480500B900BA91448FEF79CFC33
:1045100008B1FCF729FA1148FEF7DBFE08B1FCF7F9
:1045200023FA002008900A9008A90C48FEF7B8FB6F
:1045300008B1FCF719FA6020019000200290039066
:104540000590002201A90548FEF70FFE08B1FCF70F
:104550000BFA0248FEF7DCFD0FB000BDD8020020C8
:1045600010B50D480D4908604FF4E1304860002156
:104570000A488160C16001610C21416100218161B3
:10458000C16101620020054948620846FEF7DCFE71
:1045900008B1FCF7E9F910BD0048004024030020F1
:1045A00000BFFEE700BFFEE77047000010B5002324
:1045B000234C236000BF00BF00BFBFF34F8F00BF7D
:1045C00000BF00BF231F1868C0F34E3100BFC0F307
:1045D000C90200BF43F6E07303EA41134FF04044C1
:1045E00004EA82742343174C236000BF00BF131EEC
:1045F000A2F10102EED10B1EA1F10101E7D100BF32
:1046000000BF00BFBFF34F8F00BF00BF00BF0C4B08
:10461000703B1B6843F48033094C703C236000BF3F
:1046200000BF00BFBFF34F8F00BF00BF00BF00BF80
:1046300000BF00BFBFF36F8F00BF00BF00BF10BD42
:1046400084ED00E060EF00E000BF00BF00BFBFF3FB
:104650004F8F00BF00BF00BF00BF00BF00BFBFF350
:104660006F8F00BF00BF00BF00201449086000BF6B
:1046700000BF00BFBFF34F8F00BF00BF00BF00BF30
:1046800000BF00BFBFF36F8F00BF00BF00BF0C486B
:10469000006840F400300A49086000BF00BF00BF56
:1046A000BFF34F8F00BF00BF00BF00BF00BF00BF00
:1046B000BFF36F8F00BF00BF00BF704750EF00E037
:1046C00014ED00E0F8B504460E46154633460022C8
:1046D0004FF4C0512046009500F026F828B1206E16
:1046E00040F0200020660320F8BD334600228021E0
:1046F0002046009500F08CF828B1206E40F0200094
:1047000020660320F0E7334600224FF4C0612046C4
:10471000009500F009F828B1206E40F020002066D6
:104720000320E1E70020DFE72DE9FC4704460D46C2
:1047300016469846DDF82890FCF79AFDA0EB090094
:10474000A8EB0007FCF794FD824630480068C0EBF8
:10475000C00000EB8000000D784300904EE0B5F5FE
:10476000C06F04D11EB92068007B019000BF08F122
:104770000100002842D0FCF77BFDA0EB0A00B84204
:1047800000D2A7BB2068406820F0E00021684860A4
:104790006068B0F5827F0DD1A068B0F5004F03D0FE
:1047A000A068B0F5806F05D12068006820F0400057
:1047B00021680860A06AB0F5005F0DD100BF2068D5
:1047C000006820F40050216808602068006840F408
:1047D00000502168086000BF012084F85D0000BF20
:1047E000002084F85C0000BF0320BDE8FC87FFE7E1
:1047F000009800B900270098401E0090206880684B
:104800002840B042ABD10020EFE700003C00002080
:104810002DE9F84F04460D4690461E46DDF82890D7
:10482000FCF726FDA0EB0900371AFCF721FD8246B4
:104830002C480068C0F3CB307843009045E0701CF2
:10484000002842D0FCF714FDA0EB0A00B84200D2C9
:10485000A7BB2068406820F0E000216848606068DD
:10486000B0F5827F0DD1A068B0F5004F03D0A068ED
:10487000B0F5806F05D12068006820F04000216805
:104880000860A06AB0F5005F0DD100BF2068006825
:1048900020F40050216808602068006840F400504F
:1048A0002168086000BF012084F85D0000BF00207F
:1048B00084F85C0000BF0320BDE8F88FFFE7009894
:1048C00000B900270098401E0090206880682840AA
:1048D000A84201D1012000E000204045AFD10020D6
:1048E000EAE700003C000020704710B5FCF734FFF9
:1048F00010BD000000B5B7B034212AA8FBF7D2FCE8
:10490000142125A8FBF7CEFC902101A8FBF7CAFCD7
:10491000FDF73AF800BF2C48006840F080502A4963
:1049200008600846006800F08050009000BF00BF9B
:1049300000BF2648006840F440402449086008460B
:10494000006800F44040009000BF00BF01202A90A2
:104950004FF4A0202B900220309041052AA8C1617D
:1049600004210162C8214162022181620921C162E0
:10497000FDF70AFD08B1FBF7F7FFFCF7BDFF08B133
:10498000FBF7F2FF0F2025900220269000202790B1
:104990004FF4A05028904FF480502990062125A86C
:1049A000FDF7AAFB08B1FBF7DFFF094801900020E3
:1049B00014901A90209001A8FCF7F0FF08B1FBF7C3
:1049C000D3FF37B000BD0000403802400070004007
:1049D000004120000348006840F47000014908606D
:1049E0007047000088ED00E010B50B48FEF7B3FA01
:1049F0000A48007878B109480089401C07490881B5
:104A000008460089B0F57A7F05D100200881084664
:104A10004068401E486010BD8C02002078010020D4
:104A200010B50268294B98420ED0B0F1804F0BD0E0
:104A3000274B984208D0274B984205D0264B9842E6
:104A400002D0264B984203D122F070024B681A43E1
:104A50001E4B984220D0B0F1804F1DD01C4B984285
:104A60001AD01C4B984217D01B4B984214D01B4BAA
:104A7000984211D01A4B98420ED01A4B98420BD044
:104A8000194B984208D0194B984205D0184B9842C0
:104A900002D0184B984203D122F44072CB681A43DB
:104AA00022F080034C6943EA040202608B68C3620F
:104AB0000B688362054B984202D0084B984201D1A3
:104AC0000B6903630123436110BD00000000014036
:104AD0000004004000080040000C004000040140B9
:104AE00000400140004401400048014000180040DF
:104AF000001C00400020004030B50C46816821F4C5
:104B00007F4142EA032525432943816030BD0A469F
:104B1000816821F0700142F00703194381607047FA
:104B200030B5056A25F001050562026A43688469AB
:104B3000154D2C4024F003040D682C4322F0020292
:104B40008D682A43114DA84200D103E0104DA842C0
:104B500006D100BF22F00802CD682A4322F00402E9
:104B60000A4DA84202D00A4DA84207D123F480730F
:104B700023F400734D692B438D692B43436084619B
:104B80004D684563026230BD8FFFFEFF00000140AB
:104B90000004014030B5056A25F010050562026A7F
:104BA00043688469184D2C4024F440740D6844EA2D
:104BB000052422F020028D6842EA0512134DA84216
:104BC00000D103E0124DA84207D100BF22F08002BD
:104BD000CD6842EA051222F040020C4DA84202D0F4
:104BE0000B4DA84209D123F4806323F400634D697F
:104BF00043EA85038D6943EA8503436084614D6818
:104C00008563026230BD0000FF8FFFFE000001409F
:104C10000004014030B5056A25F480750562026A1A
:104C20004368C469174D2C4024F003040D682C43DD
:104C300022F400728D6842EA0522134DA84200D189
:104C400003E0124DA84207D100BF22F40062CD68F4
:104C500042EA052222F480620B4DA84202D00B4D9D
:104C6000A84209D123F4805323F400534D6943EA49
:104C700005138D6943EA05134360C4614D68C5633C
:104C8000026230BD8FFFFEFF0000014000040140C2
:104C900030B5056A25F480550562036A4468C26927
:104CA0000E4D2A4022F440720D6842EA052223F498
:104CB00000538D6843EA0533094DA84202D0094DDF
:104CC000A84204D124F480444D6944EA8514446028
:104CD000C2614D680564036230BD0000FF8FFFFEB6
:104CE000000001400004014030B5056A25F480351C
:104CF0000562026A4368446D0C4D2C400D682C43DC
:104D000022F400320D8942EA0542094DA84202D040
:104D1000084DA84204D123F480334D6943EA0523AA
:104D2000436044654D688565026230BD8FFFFEFFBC
:104D3000000001400004014030B5056A25F48015EB
:104D40000562026A4368446D0D4D2C400D6844EACB
:104D5000052422F400120D8942EA0552094DA842A9
:104D600002D0094DA84204D123F480234D6943EABF
:104D70008523436044654D68C565026230BD00000F
:104D8000FF8FFFFE000001400004014030B50B46DC
:104D90001446026A056A25F001050562816921F061
:104DA000F00141EA041122F00A021A438161026211
:104DB00030BD30B50B461446056A25F01005056276
:104DC0008169026A21F4704141EA043122F0A002B3
:104DD00042EA03128161026230BD000070B5102505
:104DE000002416E04FF6FF7000EA44040122082177
:104DF0000A48FCF737FA002208210848FCF732FA83
:104E000010210648FCF726FA08B1601C84B2681E1F
:104E1000C5B2002DE6DC204670BD00000010024047
:104E20002DE9F84F0546012208213F48FCF71AFA00
:104E3000012220213C48FCF715FA012240213A4882
:104E4000FCF710FA00200090002681464FF47A7A91
:104E50000027002240213448FCF704FA14E0902097
:104E600000F074F8FFF7BAFF06460098304400904F
:104E7000B144D02000F06AF8FFF7B0FF0446A34425
:104E8000A044AAF1010A7F1CBAF1000F05D0042149
:104E90002548FCF7DFF90028E1D001224021224813
:104EA000FCF7E0F9B7F57A7F38D104211E48FCF70A
:104EB000D1F990BBB8FBF7F8B9FBF7F91FFA88F402
:104EC0001FFA89F6604284B2704286B240F2111035
:104ED00094FBF0F0C0F1E30000EE100AB8EEC00B56
:104EE0009FED121B20EE010BBCEEC00B10EE100A62
:104EF0002880CC2096FBF0F00F3800EE100AB8EEB8
:104F0000C00B9FED0A1B20EE010BBCEEC00B10EE98
:104F1000100A68800120BDE8F88FFFE70020288094
:104F2000688000BFF7E70000001002408FC2F5283C
:104F30005C8FF23F10B504210348FCF78BF908B9E8
:104F4000012010BD0020FCE70010024070B50446AF
:104F50000825002208211148FCF784F91BE004F021
:104F6000800028B1012220210C48FCF77BF904E0E5
:104F7000002220210948FCF775F96006040E012281
:104F800008210648FCF76EF9002208210348FCF7C7
:104F900069F9681EC5B2002DE1DC70BD0010024049
:104FA00090F8241001F0010139B10168496821F439
:104FB0000031826A11430268516090F8241001F0B8
:104FC0000201022907D10168496821F48031C26ACF
:104FD00011430268516090F8241001F00401042983
:104FE00007D10168496821F48021026B11430268EE
:104FF000516090F8241001F00801082907D10168D8
:10500000496821F40041426B11430268516090F8F5
:10501000241001F01001102907D10168896821F4DA
:105020008051826B11430268916090F8241001F066
:105030002001202907D10168896821F40051C26B41
:1050400011430268916090F8241001F0400140295A
:1050500013D10168496821F48011026C1143026880
:105060005160016CB1F5801F07D10168496821F4D6
:10507000C001426C11430268516090F8241001F0A5
:105080008001802907D10168496821F40021826CE0
:10509000114302685160704738B504460020C4F8D7
:1050A0008000FCF7E5F805462068006800F008007D
:1050B00008280CD16FF07E402B4600224FF40011DF
:1050C0000090204600F0C0F908B1032038BD2068E8
:1050D000006800F0040004280CD16FF07E402B46DD
:1050E00000224FF480010090204600F0ADF908B195
:1050F0000320EBE72020A067E0670020206600BFC8
:1051000084F8740000BF00BFE0E700002DE9F0471D
:1051100005464FF0000A2969A868084369690843F1
:10512000E96940EA010828680068BC49084040EA8B
:105130000800296808602868406820F44050E96841
:10514000084329684860D5F81880286A40EA0808AA
:105150002868806820F4306040EA08002968886088
:1051600000BFAF492868884216D1AE48006800F0F9
:10517000030030B1012808D0022804D0032808D148
:1051800005E0012407E0022405E0042403E00824EC
:1051900001E0102400BFC9E0A3492868884216D165
:1051A000A048006800F00C0030B1042808D008289E
:1051B00004D00C2808D105E0002407E0022405E013
:1051C000042403E0082401E0102400BFAEE0974966
:1051D0002868884216D19348006800F0300030B14A
:1051E000102808D0202804D0302808D105E0002459
:1051F00007E0022405E0042403E0082401E0102471
:1052000000BF93E08A492868884216D18548006823
:1052100000F0C00030B1402808D0802804D0C02859
:1052200008D105E0002407E0022405E0042403E09F
:10523000082401E0102400BF78E07E4928688842F5
:1052400019D17848006800F4407048B1B0F5807F0B
:105250000AD0B0F5007F05D0B0F5407F08D105E059
:10526000002407E0022405E0042403E0082401E010
:10527000102400BF5AE070492868884219D1694853
:10528000006800F4406048B1B0F5806F0AD0B0F516
:10529000006F05D0B0F5406F08D105E0012407E0AC
:1052A000022405E0042403E0082401E0102400BFE8
:1052B0003CE062492868884219D15A48006800F4E5
:1052C000405048B1B0F5805F0AD0B0F5005F05D01E
:1052D000B0F5405F08D105E0002407E0022405E0B6
:1052E000042403E0082401E0102400BF1EE0544918
:1052F0002868884219D14B48006800F4404048B102
:10530000B0F5804F0AD0B0F5004F05D0B0F5404F52
:1053100008D105E0002407E0022405E0042403E0AE
:10532000082401E0102400BF00E0102400BFE86959
:10533000B0F5004F3AD1092C17D2DFE804F0050987
:105340000D160F1616161300FCF7A6FF064610E002
:10535000FCF7B2FF06460CE03A4E0AE0FCF7BCFF51
:10536000064606E04FF4004603E000264FF0010A2F
:1053700000BF00BF8EB37000696800EB5100B0FB46
:10538000F1F087B2102F0ED3B7F5803F0BD24FF656
:10539000F07007EA0009C7F3420049EA00092868EB
:1053A000C0F80C9034E04FF0010A31E0092C18D21B
:1053B000DFE804F005090D170F1717171400FCF7A5
:1053C0006BFF064611E0FCF777FF06460DE01D4E29
:1053D0000BE0FCF781FF064607E019E04FF40046BA
:1053E00003E000264FF0010A00BF00BF86B16868E5
:1053F00006EB50006968B0FBF1F087B2102F05D3BF
:10540000B7F5803F02D22868C76001E04FF0010A7B
:1054100000206866A8665046BDE8F087F369FFEF94
:105420000010014090380240004400400048004015
:10543000004C004000500040001401400078004043
:10544000007C00400024F4002DE9F04104460D46A4
:1054500017469846069E46E0701C002843D0FBF78E
:1054600007FFA0EB0800B04200D8B6B9206800687A
:1054700020F4D070216808602068806820F0010066
:10548000216888602020A067E06700BF002084F8C2
:10549000740000BF0320BDE8F0812068006800F0C0
:1054A000040000B32068C069C0F3C020D8B14FF435
:1054B0000060216808622068006820F4D0702168CC
:1054C00008602068806820F0010021688860202042
:1054D000A067E067C4F8800000BF002084F8740073
:1054E00000BF0320D7E72068C0692840A84201D147
:1054F000012000E00020B842AED00020CBE700BF82
:10550000FEE700000FB4084B10B504A902AA0398E7
:1055100000F0FAF8044602A9002000F078FC2046CA
:1055200010BC5DF814FB00000F5E00080248006824
:10553000C0F30220704700000CED00E010B5002819
:1055400004DB0A07130E054A135406E00A07140E7B
:10555000034A00F00F031B1FD45410BD00E400E009
:1055600018ED00E002E008C8121F08C1002AFAD1B5
:1055700070477047002001E001C1121F002AFBD1D3
:10558000704700002DE9FF5F82B00021DDE90430A3
:10559000020DDDF840B0034318D044F61050A2F2DB
:1055A000FF3242431514119801281FD0A5EB0B00C0
:1055B000401C5FEA000A4FF000064E4FDFF83891BA
:1055C000B046504615D5CAF1000413E011980124E5
:1055D0004AA3012801D16FEA0B010298119AC0E990
:1055E0000031C0E9024206B0BDE8F09FCBF10000F7
:1055F000DFE704460021404A491842EB0450CDE958
:10560000001012E0E00707D032463B4640464946CC
:10561000FAF736FF8046894632463B461046194621
:10562000FAF72EFF06460F466410002CEAD1DDE99A
:105630000401DDE90023BAF1000F06DAFAF720FFD2
:1056400042464B46FAF71CFF05E0FAF78BFF42464D
:105650004B46FAF787FF04460E460022284BFBF71D
:1056600009F803D84FF0FF30014607E00022254B30
:1056700020463146FAF75DFEFAF7E3FF102409E011
:10568000002C0ADB0A220023FAF7D4FD039B3032F8
:105690001A55641E50EA0102F2D1641C039AC4F147
:1056A00011031444119A012A03D0012208430DD199
:1056B0000AE0084304D000204FF0110B119072E76C
:1056C000A3EB0B056D1E0DE05B4504DD4FF0000202
:1056D00005F1010504E003DA4FF00002A5F1010530
:1056E000002AECD002981199C0E90231C0E90045C6
:1056F00079E70000000014400000F03F3000000097
:105700000000F0430000E03F2DE9FF4F95B09A46BE
:10571000884606460025EEE1252877D10024274655
:10572000F94A0121039400E0044316F8013F203BAD
:1057300001FA03F01042F7D130782A2811D06FF027
:105740002F033078A0F13002092A16D8039A44F0CA
:10575000020402EB820203EB42021044761C039027
:10576000EFE758F8042B0392002A03DA504244F47E
:105770000054039044F00204761C30782E2816D191
:1057800016F8010F44F004042A280DD06FF02F0200
:105790003078A0F13003092B09D807EB870302EB1F
:1057A0004303C718761CF3E758F8047B761C30785F
:1057B0006C280FD006DC4C2817D068280DD06A283A
:1057C00014D104E0742810D07A280FD10DE044F4ED
:1057D00000140AE044F4801401E044F440147278A8
:1057E000824202D104F58014761C761C307866283B
:1057F0000BD013DC582877D009DC002875D0452859
:10580000F6D04628F4D047281AD193E118E063284F
:1058100035D0642879D0652812D18BE1702873D0F7
:1058200008DC6728F1D069286FD06E280DD06F286A
:1058300006D1ACE073282CD0752874D0782853D0CA
:105840005246179990476D1C54E1C4F30250022848
:1058500009D003280DD0D8F8001004280DD00D6011
:1058600008F1040846E1D8F80010EA17C1E900522F
:10587000F6E7D8F800100D80F2E70D70F0E718F8A1
:10588000041B8DF8001000208DF80100EB4601206C
:1058900003E058F804BB4FF0FF3061074FF0000100
:1058A00002D40DE009F101018946B9420FDA8145C0
:1058B000F8DB1BF809100029F4D108E009F1010117
:1058C00089468142FADB1BF809100029F6D10398BA
:1058D0005346A0EB090721463846179A00F080FA94
:1058E000284400EB090507E044E008E10DE01BF85F
:1058F000010B524617999047B9F10109F7D2534667
:1059000021463846179AF2E039E00A21C4F30252E0
:105910004FF0000B0091022A06D058F8040BC11773
:10592000032A09D00AE023E008F1070020F007026B
:10593000F2E80201904605E000B2C117042A01D145
:1059400040B2C117002906DA0A460021404261EB45
:1059500002012D2202E0220504D52B228DF804201D
:10596000012203E0E20701D02022F7E7914657E049
:105970000A2100E010214FF0000B00910BE01021F4
:105980004FF0000B44F004040827009103E00820C6
:105990004FF0000B0090C4F30252022A05D058F8D1
:1059A000040B0021032A08D008E008F1070020F0CA
:1059B0000702F2E80201904603E080B2042A00D117
:1059C000C0B24FF0000922072AD53278702A07D0DA
:1059D000DDF800C08CF0100C5CEA0B0C05D00EE07A
:1059E00040228DF80420012208E050EA010306D08D
:1059F00030238DF804308DF8052002229146009B5B
:105A000083F0080353EA0B030AD150EA010201D1E3
:105A1000620705D530228DF804204FF001097F1E62
:105A20003278582A04D039A20C920CAA02920BE0C8
:105A30003BA2F9E75B46009AFAF7FCFB0C9B9B5CE8
:105A4000029A521E0292137050EA0102F2D1029899
:105A500004A9081A00F1200B600702D524F4803451
:105A600000E001275F4502DDA7EB0B0000E000200E
:105A700000EB0B01009003984944401A0390E003A7
:105A800006D453462146179A039800F0A9F9054415
:105A9000002706E001A85246C05D179990476D1C8B
:105AA0007F1C4F45F6DBE0030CD553462146179A81
:105AB000039800F095F9054404E030205246179908
:105AC00090476D1C0099481E00900029F5DC08E005
:105AD0000298029952460078491C02911799904702
